{"abi":[{"type":"constructor","inputs":[{"name":"_treasury","type":"address","internalType":"address"},{"name":"_protocolFeePercent","type":"uint256","internalType":"uint256"}],"stateMutability":"nonpayable"},{"type":"receive","stateMutability":"payable"},{"type":"function","name":"WETH","inputs":[],"outputs":[{"name":"","type":"address","internalType":"address"}],"stateMutability":"view"},{"type":"function","name":"createOrder","inputs":[{"name":"_token","type":"address","internalType":"address"},{"name":"_amount","type":"uint256","internalType":"uint256"},{"name":"_rate","type":"uint256","internalType":"uint256"},{"name":"_refundAddress","type":"address","internalType":"address"},{"name":"_liquidityProvider","type":"address","internalType":"address"}],"outputs":[{"name":"orderId","type":"uint256","internalType":"uint256"}],"stateMutability":"nonpayable"},{"type":"function","name":"createOrderWithCustomPath","inputs":[{"name":"_path","type":"address[]","internalType":"address[]"},{"name":"_inputAmount","type":"uint256","internalType":"uint256"},{"name":"_minOutputAmount","type":"uint256","internalType":"uint256"},{"name":"_rate","type":"uint256","internalType":"uint256"},{"name":"_refundAddress","type":"address","internalType":"address"},{"name":"_liquidityProvider","type":"address","internalType":"address"}],"outputs":[{"name":"orderId","type":"uint256","internalType":"uint256"}],"stateMutability":"nonpayable"},{"type":"function","name":"createOrderWithSwap","inputs":[{"name":"_targetToken","type":"address","internalType":"address"},{"name":"_minOutputAmount","type":"uint256","internalType":"uint256"},{"name":"_rate","type":"uint256","internalType":"uint256"},{"name":"_refundAddress","type":"address","internalType":"address"},{"name":"_liquidityProvider","type":"address","internalType":"address"}],"outputs":[{"name":"orderId","type":"uint256","internalType":"uint256"}],"stateMutability":"payable"},{"type":"function","name":"defaultFeeTier","inputs":[],"outputs":[{"name":"","type":"uint24","internalType":"uint24"}],"stateMutability":"view"},{"type":"function","name":"estimateSwapOutput","inputs":[{"name":"_inputToken","type":"address","internalType":"address"},{"name":"_targetToken","type":"address","internalType":"address"},{"name":"_inputAmount","type":"uint256","internalType":"uint256"}],"outputs":[{"name":"","type":"uint256","internalType":"uint256"}],"stateMutability":"nonpayable"},{"type":"function","name":"estimateSwapOutputWithPath","inputs":[{"name":"_path","type":"address[]","internalType":"address[]"},{"name":"_inputAmount","type":"uint256","internalType":"uint256"}],"outputs":[{"name":"","type":"uint256","internalType":"uint256"}],"stateMutability":"nonpayable"},{"type":"function","name":"getOrderInfo","inputs":[{"name":"_orderId","type":"uint256","internalType":"uint256"}],"outputs":[{"name":"token","type":"address","internalType":"address"},{"name":"amount","type":"uint256","internalType":"uint256"},{"name":"rate","type":"uint256","internalType":"uint256"},{"name":"creator","type":"address","internalType":"address"},{"name":"refundAddress","type":"address","internalType":"address"},{"name":"liquidityProvider","type":"address","internalType":"address"},{"name":"isFulfilled","type":"bool","internalType":"bool"},{"name":"isRefunded","type":"bool","internalType":"bool"},{"name":"timestamp","type":"uint256","internalType":"uint256"}],"stateMutability":"view"},{"type":"function","name":"orderIdCounter","inputs":[],"outputs":[{"name":"","type":"uint256","internalType":"uint256"}],"stateMutability":"view"},{"type":"function","name":"orders","inputs":[{"name":"","type":"uint256","internalType":"uint256"}],"outputs":[{"name":"token","type":"address","internalType":"address"},{"name":"amount","type":"uint256","internalType":"uint256"},{"name":"rate","type":"uint256","internalType":"uint256"},{"name":"creator","type":"address","internalType":"address"},{"name":"refundAddress","type":"address","internalType":"address"},{"name":"liquidityProvider","type":"address","internalType":"address"},{"name":"isFulfilled","type":"bool","internalType":"bool"},{"name":"isRefunded","type":"bool","internalType":"bool"},{"name":"timestamp","type":"uint256","internalType":"uint256"}],"stateMutability":"view"},{"type":"function","name":"owner","inputs":[],"outputs":[{"name":"","type":"address","internalType":"address"}],"stateMutability":"view"},{"type":"function","name":"protocolFeePercent","inputs":[],"outputs":[{"name":"","type":"uint256","internalType":"uint256"}],"stateMutability":"view"},{"type":"function","name":"quoter","inputs":[],"outputs":[{"name":"","type":"address","internalType":"contract IQuoter"}],"stateMutability":"view"},{"type":"function","name":"setDefaultFeeTier","inputs":[{"name":"_feeTier","type":"uint24","internalType":"uint24"}],"outputs":[],"stateMutability":"nonpayable"},{"type":"function","name":"setFeeTierSupport","inputs":[{"name":"_feeTier","type":"uint24","internalType":"uint24"},{"name":"_isSupported","type":"bool","internalType":"bool"}],"outputs":[],"stateMutability":"nonpayable"},{"type":"function","name":"setProtocolFeePercent","inputs":[{"name":"_protocolFeePercent","type":"uint256","internalType":"uint256"}],"outputs":[],"stateMutability":"nonpayable"},{"type":"function","name":"setQuoter","inputs":[{"name":"_quoter","type":"address","internalType":"address"}],"outputs":[],"stateMutability":"nonpayable"},{"type":"function","name":"setTokenSupport","inputs":[{"name":"_token","type":"address","internalType":"address"},{"name":"_isSupported","type":"bool","internalType":"bool"}],"outputs":[],"stateMutability":"nonpayable"},{"type":"function","name":"setTreasury","inputs":[{"name":"_treasury","type":"address","internalType":"address"}],"outputs":[],"stateMutability":"nonpayable"},{"type":"function","name":"setUniswapRouter","inputs":[{"name":"_router","type":"address","internalType":"address"}],"outputs":[],"stateMutability":"nonpayable"},{"type":"function","name":"setWETH","inputs":[{"name":"_weth","type":"address","internalType":"address"}],"outputs":[],"stateMutability":"nonpayable"},{"type":"function","name":"supportedFeeTiers","inputs":[{"name":"","type":"uint24","internalType":"uint24"}],"outputs":[{"name":"","type":"bool","internalType":"bool"}],"stateMutability":"view"},{"type":"function","name":"supportedTokens","inputs":[{"name":"","type":"address","internalType":"address"}],"outputs":[{"name":"","type":"bool","internalType":"bool"}],"stateMutability":"view"},{"type":"function","name":"transferOwnership","inputs":[{"name":"newOwner","type":"address","internalType":"address"}],"outputs":[],"stateMutability":"nonpayable"},{"type":"function","name":"treasury","inputs":[],"outputs":[{"name":"","type":"address","internalType":"address"}],"stateMutability":"view"},{"type":"function","name":"uniswapRouter","inputs":[],"outputs":[{"name":"","type":"address","internalType":"contract ISwapRouter"}],"stateMutability":"view"},{"type":"event","name":"DefaultFeeTierUpdated","inputs":[{"name":"feeTier","type":"uint24","indexed":false,"internalType":"uint24"}],"anonymous":false},{"type":"event","name":"FeeTierUpdated","inputs":[{"name":"feeTier","type":"uint24","indexed":false,"internalType":"uint24"},{"name":"isSupported","type":"bool","indexed":false,"internalType":"bool"}],"anonymous":false},{"type":"event","name":"OrderCreated","inputs":[{"name":"orderId","type":"uint256","indexed":false,"internalType":"uint256"},{"name":"token","type":"address","indexed":false,"internalType":"address"},{"name":"amount","type":"uint256","indexed":false,"internalType":"uint256"},{"name":"rate","type":"uint256","indexed":false,"internalType":"uint256"},{"name":"refundAddress","type":"address","indexed":false,"internalType":"address"},{"name":"liquidityProvider","type":"address","indexed":false,"internalType":"address"}],"anonymous":false},{"type":"event","name":"OrderFulfilled","inputs":[{"name":"orderId","type":"uint256","indexed":false,"internalType":"uint256"},{"name":"liquidityProvider","type":"address","indexed":false,"internalType":"address"}],"anonymous":false},{"type":"event","name":"OrderRefunded","inputs":[{"name":"orderId","type":"uint256","indexed":false,"internalType":"uint256"}],"anonymous":false},{"type":"event","name":"OwnershipTransferred","inputs":[{"name":"previousOwner","type":"address","indexed":true,"internalType":"address"},{"name":"newOwner","type":"address","indexed":true,"internalType":"address"}],"anonymous":false},{"type":"event","name":"ProtocolFeeUpdated","inputs":[{"name":"newFeePercent","type":"uint256","indexed":false,"internalType":"uint256"}],"anonymous":false},{"type":"event","name":"QuoterUpdated","inputs":[{"name":"quoter","type":"address","indexed":false,"internalType":"address"}],"anonymous":false},{"type":"event","name":"RouterUpdated","inputs":[{"name":"uniswapRouter","type":"address","indexed":false,"internalType":"address"}],"anonymous":false},{"type":"event","name":"SwapExecuted","inputs":[{"name":"fromToken","type":"address","indexed":false,"internalType":"address"},{"name":"toToken","type":"address","indexed":false,"internalType":"address"},{"name":"amountIn","type":"uint256","indexed":false,"internalType":"uint256"},{"name":"amountOut","type":"uint256","indexed":false,"internalType":"uint256"}],"anonymous":false},{"type":"event","name":"TokenSupportUpdated","inputs":[{"name":"token","type":"address","indexed":false,"internalType":"address"},{"name":"isSupported","type":"bool","indexed":false,"internalType":"bool"}],"anonymous":false},{"type":"event","name":"TreasuryUpdated","inputs":[{"name":"newTreasury","type":"address","indexed":false,"internalType":"address"}],"anonymous":false},{"type":"event","name":"WETHUpdated","inputs":[{"name":"weth","type":"address","indexed":false,"internalType":"address"}],"anonymous":false}],"bytecode":{"object":"0x60806040523480156200001157600080fd5b50604051620030623803806200306283398101604081905262000034916200020c565b600080546001600160a01b031916339081178255604051909182917f8be0079c531659141344cd1fd0a4f28419497f9722a3daafe3b4186f6b6457e0908290a350600180556001600160a01b038216620000d55760405162461bcd60e51b815260206004820152601860248201527f496e76616c69642074726561737572792061646472657373000000000000000060448201526064015b60405180910390fd5b6103e8811115620001185760405162461bcd60e51b815260206004820152600c60248201526b08ccaca40e8dede40d0d2ced60a31b6044820152606401620000cc565b600280546001600160a01b039093166001600160a01b03199093169290921790915560035560096020527fc4d6d75322bbcd7f2bcee35e2678743b384950d6f74c9e7a8ec0360cca8df488805460ff1990811660019081179092557f562e7863ae6f0cef518fe55baf10ce45ea6423f9a661c6b5f2c0e8245ef09cb380548216831790557f7490767431bb6c491e0a2a85609514acd145401f7c46d5b003be0220cb0c243980548216831790556127106000527feb0a75c8a8678d4158cee9c6e609d3d790e25b0c2018175a1fc2c357d5e29fc980549091169091179055600a805462ffffff1916610bb817905562000248565b600080604083850312156200022057600080fd5b82516001600160a01b03811681146200023857600080fd5b6020939093015192949293505050565b612e0a80620002586000396000f3fe6080604052600436106101855760003560e01c8063a4983421116100d1578063d311636b1161008a578063f0f4426011610064578063f0f44260146105b2578063f2fde38b146105d2578063f912c64b146105f2578063ffea85761461061257600080fd5b8063d311636b146104fd578063d401e2c91461057c578063d6e6eb9f1461059c57600080fd5b8063a49834211461038f578063a85c38ef146103af578063ad5c464814610487578063be374423146104a7578063bea9849e146104bd578063c6bbd5a7146104dd57600080fd5b806361d027b31161013e578063735de9f711610118578063735de9f7146103015780638b41763e146103215780638da5cb5b14610351578063a2cc6c1f1461036f57600080fd5b806361d027b31461027657806368c4ac26146102ae57806371729984146102ee57600080fd5b80630c6a753f146101915780630e2e1e47146101b35780632395a5f2146101e6578063550fce201461020657806357606cb5146102265780635b769f3c1461025657600080fd5b3661018c57005b600080fd5b34801561019d57600080fd5b506101b16101ac3660046127b6565b610632565b005b3480156101bf57600080fd5b506101d36101ce366004612839565b610726565b6040519081526020015b60405180910390f35b3480156101f257600080fd5b506101d36102013660046128ba565b6110c1565b34801561021257600080fd5b506101d3610221366004612906565b6111b9565b34801561023257600080fd5b50600a546102429062ffffff1681565b60405162ffffff90911681526020016101dd565b34801561026257600080fd5b506101b1610271366004612942565b6112a1565b34801561028257600080fd5b50600254610296906001600160a01b031681565b6040516001600160a01b0390911681526020016101dd565b3480156102ba57600080fd5b506102de6102c9366004612942565b60086020526000908152604090205460ff1681565b60405190151581526020016101dd565b6101d36102fc366004612964565b61137c565b34801561030d57600080fd5b50600554610296906001600160a01b031681565b34801561032d57600080fd5b506102de61033c3660046129ce565b60096020526000908152604090205460ff1681565b34801561035d57600080fd5b506000546001600160a01b0316610296565b34801561037b57600080fd5b506101b161038a3660046129e9565b611ba8565b34801561039b57600080fd5b506101b16103aa366004612a05565b611c39565b3480156103bb57600080fd5b5061042e6103ca366004612a05565b600b6020526000908152604090208054600182015460028301546003840154600485015460058601546006909601546001600160a01b03958616969495939492841693918216929182169160ff600160a01b8204811692600160a81b909204169089565b604080516001600160a01b039a8b16815260208101999099528801969096529387166060870152918616608086015290941660a084015292151560c083015291151560e0820152610100810191909152610120016101dd565b34801561049357600080fd5b50600754610296906001600160a01b031681565b3480156104b357600080fd5b506101d360045481565b3480156104c957600080fd5b506101b16104d8366004612942565b611ce8565b3480156104e957600080fd5b50600654610296906001600160a01b031681565b34801561050957600080fd5b5061042e610518366004612a05565b6000908152600b602052604090208054600182015460028301546003840154600485015460058601546006909601546001600160a01b03958616979496939592831694918316939283169260ff600160a01b8204811693600160a81b909204169190565b34801561058857600080fd5b506101d3610597366004612964565b611dbe565b3480156105a857600080fd5b506101d360035481565b3480156105be57600080fd5b506101b16105cd366004612942565b61230e565b3480156105de57600080fd5b506101b16105ed366004612942565b6123eb565b3480156105fe57600080fd5b506101b161060d366004612942565b6124d4565b34801561061e57600080fd5b506101b161062d3660046129ce565b6125aa565b336106456000546001600160a01b031690565b6001600160a01b0316146106745760405162461bcd60e51b815260040161066b90612a1e565b60405180910390fd5b6001600160a01b0382166106c25760405162461bcd60e51b8152602060048201526015602482015274496e76616c696420746f6b656e206164647265737360581b604482015260640161066b565b6001600160a01b038216600081815260086020908152604091829020805460ff19168515159081179091558251938452908301527fbbe72b7d9dcb594ee398a4a617885aba53d833e2aad601c813ce9df99fdeb49b91015b60405180910390a15050565b600060026001540361074a5760405162461bcd60e51b815260040161066b90612a53565b60026001556005546001600160a01b03166107a05760405162461bcd60e51b8152602060048201526016602482015275155b9a5cddd85c081c9bdd5d195c881b9bdd081cd95d60521b604482015260640161066b565b60028710156107c15760405162461bcd60e51b815260040161066b90612a8a565b6000861161081d5760405162461bcd60e51b815260206004820152602360248201527f496e70757420616d6f756e74206d75737420626520677265617465722074686160448201526206e20360ec1b606482015260840161066b565b6000851161083d5760405162461bcd60e51b815260040161066b90612ab2565b60086000898961084e600182612b10565b81811061085d5761085d612b23565b90506020020160208101906108729190612942565b6001600160a01b0316815260208101919091526040016000205460ff166108db5760405162461bcd60e51b815260206004820152601a60248201527f54617267657420746f6b656e206e6f7420737570706f72746564000000000000604482015260640161066b565b6001600160a01b0383166109015760405162461bcd60e51b815260040161066b90612b39565b6001600160a01b0382166109275760405162461bcd60e51b815260040161066b90612b69565b60008888600081811061093c5761093c612b23565b90506020020160208101906109519190612942565b6040516323b872dd60e01b8152336004820152306024820152604481018990529091506001600160a01b038216906323b872dd906064016020604051808303816000875af11580156109a7573d6000803e3d6000fd5b505050506040513d601f19601f820116820180604052508101906109cb9190612bab565b610a095760405162461bcd60e51b815260206004820152600f60248201526e151c985b9cd9995c8819985a5b1959608a1b604482015260640161066b565b60055460405163095ea7b360e01b81526001600160a01b039182166004820152602481018990529082169063095ea7b3906044016020604051808303816000875af1158015610a5c573d6000803e3d6000fd5b505050506040513d601f19601f82011682018060405250810190610a809190612bab565b610abe5760405162461bcd60e51b815260206004820152600f60248201526e105c1c1c9bdd985b0819985a5b1959608a1b604482015260640161066b565b6000808a8a610ace600182612b10565b818110610add57610add612b23565b9050602002016020810190610af29190612942565b90506000610b008c8c612686565b6005546040805160a0810182528381523060208201529293506001600160a01b039091169163c04b8d59918101610b394261012c612bc8565b81526020018d81526020018c8152506040518263ffffffff1660e01b8152600401610b649190612c2b565b6020604051808303816000875af1925050508015610b9f575060408051601f3d908101601f19168201909252610b9c91810190612c83565b60015b610c865760405163a9059cbb60e01b8152336004820152602481018b90526001600160a01b0385169063a9059cbb906044016020604051808303816000875af1158015610bf0573d6000803e3d6000fd5b505050506040513d601f19601f82011682018060405250810190610c149190612bab565b610c505760405162461bcd60e51b815260206004820152600d60248201526c1499599d5b990819985a5b1959609a1b604482015260640161066b565b60405162461bcd60e51b815260206004820152600b60248201526a14ddd85c0819985a5b195960aa1b604482015260640161066b565b8093507fdd36740e2a012d93061a0d99eaa9107860955de4e90027d3cf465a055026c4078d8d6000818110610cbd57610cbd612b23565b9050602002016020810190610cd29190612942565b604080516001600160a01b039283168152918616602083015281018d90526060810186905260800160405180910390a150600061271060035485610d169190612c9c565b610d209190612cb3565b90506000610d2e8286612b10565b9050838215610df05760025460405163a9059cbb60e01b81526001600160a01b039182166004820152602481018590529082169063a9059cbb906044016020604051808303816000875af1158015610d8a573d6000803e3d6000fd5b505050506040513d601f19601f82011682018060405250810190610dae9190612bab565b610df05760405162461bcd60e51b8152602060048201526013602482015272119959481d1c985b9cd9995c8819985a5b1959606a1b604482015260640161066b565b60405163a9059cbb60e01b81526001600160a01b038a811660048301526024820184905282169063a9059cbb906044016020604051808303816000875af1158015610e3f573d6000803e3d6000fd5b505050506040513d601f19601f82011682018060405250810190610e639190612bab565b610e7f5760405162461bcd60e51b815260040161066b90612cd5565b60048054906000610e8f83612d17565b919050559750604051806101200160405280866001600160a01b031681526020018781526020018c8152602001336001600160a01b031681526020018b6001600160a01b031681526020018a6001600160a01b0316815260200160011515815260200160001515815260200142815250600b60008a815260200190815260200160002060008201518160000160006101000a8154816001600160a01b0302191690836001600160a01b03160217905550602082015181600101556040820151816002015560608201518160030160006101000a8154816001600160a01b0302191690836001600160a01b0316021790555060808201518160040160006101000a8154816001600160a01b0302191690836001600160a01b0316021790555060a08201518160050160006101000a8154816001600160a01b0302191690836001600160a01b0316021790555060c08201518160050160146101000a81548160ff02191690831515021790555060e08201518160050160156101000a81548160ff02191690831515021790555061010082015181600601559050507f762b57f94d140950de7725240137a9b211915c582d995ac55bbe204e5acbfa7a8886888e8e8e60405161106196959493929190612d30565b60405180910390a1604080518981526001600160a01b038b1660208201527fe5f48e2a4a303d196ad814389aa54cf34e7b1e404e740599d005907a2ca0cd6c910160405180910390a150506001805550939b9a5050505050505050505050565b6006546000906001600160a01b031661110d5760405162461bcd60e51b815260206004820152600e60248201526d145d5bdd195c881b9bdd081cd95d60921b604482015260640161066b565b600283101561112e5760405162461bcd60e51b815260040161066b90612a8a565b600061113a8585612686565b60065460405163cdca175360e01b81529192506001600160a01b03169063cdca17539061116d9084908790600401612d66565b6020604051808303816000875af115801561118c573d6000803e3d6000fd5b505050506040513d601f19601f820116820180604052508101906111b09190612c83565b95945050505050565b6006546000906001600160a01b03166112055760405162461bcd60e51b815260206004820152600e60248201526d145d5bdd195c881b9bdd081cd95d60921b604482015260640161066b565b600654600a5460405163f7729d4360e01b81526001600160a01b038781166004830152868116602483015262ffffff9092166044820152606481018590526000608482015291169063f7729d439060a4016020604051808303816000875af1158015611275573d6000803e3d6000fd5b505050506040513d601f19601f820116820180604052508101906112999190612c83565b949350505050565b336112b46000546001600160a01b031690565b6001600160a01b0316146112da5760405162461bcd60e51b815260040161066b90612a1e565b6001600160a01b0381166113275760405162461bcd60e51b8152602060048201526014602482015273496e76616c69642057455448206164647265737360601b604482015260640161066b565b600780546001600160a01b0319166001600160a01b0383169081179091556040519081527f5f85e7e522385144040f94bcb1eeaeb07da5e11d6384c124c09f53986d0ed8bc906020015b60405180910390a150565b60006002600154036113a05760405162461bcd60e51b815260040161066b90612a53565b6002600155346113e15760405162461bcd60e51b815260206004820152600c60248201526b115512081c995c5d5a5c995960a21b604482015260640161066b565b600085116114015760405162461bcd60e51b815260040161066b90612ab2565b6001600160a01b03861660009081526008602052604090205460ff166114695760405162461bcd60e51b815260206004820152601a60248201527f54617267657420746f6b656e206e6f7420737570706f72746564000000000000604482015260640161066b565b6001600160a01b03831661148f5760405162461bcd60e51b815260040161066b90612b39565b6001600160a01b0382166114e55760405162461bcd60e51b815260206004820152601a60248201527f496e76616c6964206c69717569646974792070726f7669646572000000000000604482015260640161066b565b6005546001600160a01b03166115365760405162461bcd60e51b8152602060048201526016602482015275155b9a5cddd85c081c9bdd5d195c881b9bdd081cd95d60521b604482015260640161066b565b6007546001600160a01b03166115855760405162461bcd60e51b815260206004820152601460248201527315d15512081859191c995cdcc81b9bdd081cd95d60621b604482015260640161066b565b60075460408051630d0e30db60e41b8152905134926001600160a01b03169163d0e30db091849160048082019260009290919082900301818588803b1580156115cd57600080fd5b505af11580156115e1573d6000803e3d6000fd5b505060075460055460405163095ea7b360e01b81526001600160a01b039182166004820152602481018790529116935063095ea7b3925060440190506020604051808303816000875af115801561163c573d6000803e3d6000fd5b505050506040513d601f19601f820116820180604052508101906116609190612bab565b5060055460408051610100810182526007546001600160a01b0390811682528a81166020830152600a5462ffffff1692820192909252306060820152600092919091169063414bf38990608081016116ba4261012c612bc8565b8152602080820187905260408083018d90526000606093840152805160e086811b6001600160e01b031916825285516001600160a01b03908116600484015293860151841660248301529185015162ffffff16604482015292840151821660648401526080840151608484015260a084015160a484015260c084015160c4840152929092015190911660e4820152610104016020604051808303816000875af1925050508015611787575060408051601f3d908101601f1916820190925261178491810190612c83565b60015b61188057600754604051632e1a7d4d60e01b8152600481018490526001600160a01b0390911690632e1a7d4d90602401600060405180830381600087803b1580156117d157600080fd5b505af11580156117e5573d6000803e3d6000fd5b505050506000856001600160a01b03168360405160006040518083038185875af1925050503d8060008114611836576040519150601f19603f3d011682016040523d82523d6000602084013e61183b565b606091505b5050905080610c505760405162461bcd60e51b8152602060048201526011602482015270115512081c99599d5b990819985a5b1959607a1b604482015260640161066b565b600754604080516001600160a01b039283168152918b16602083015281018490526060810182905290915081907fdd36740e2a012d93061a0d99eaa9107860955de4e90027d3cf465a055026c4079060800160405180910390a1506000612710600354836118ee9190612c9c565b6118f89190612cb3565b905060006119068284612b10565b905081156119875760025460405163a9059cbb60e01b81526001600160a01b03918216600482015260248101849052908b169063a9059cbb906044016020604051808303816000875af1158015611961573d6000803e3d6000fd5b505050506040513d601f19601f820116820180604052508101906119859190612bab565b505b60405163a9059cbb60e01b81526001600160a01b038781166004830152602482018390528b169063a9059cbb906044016020604051808303816000875af11580156119d6573d6000803e3d6000fd5b505050506040513d601f19601f820116820180604052508101906119fa9190612bab565b5060048054906000611a0b83612d17565b9091555060408051610120810182526001600160a01b03808e16825260208083018881528385018e815233606086019081528e8516608087019081528e861660a08801908152600160c08901818152600060e08b01818152426101008d019081528e8352600b909a52908c90209a518b54908b166001600160a01b0319918216178c559751928b0192909255945160028a01559251600389018054918916918716919091179055905160048801805491881691909516179093559151600586018054925193511515600160a81b0260ff60a81b19941515600160a01b026001600160a81b0319909416929096169190911791909117919091169290921790915551600690910155519095507f762b57f94d140950de7725240137a9b211915c582d995ac55bbe204e5acbfa7a90611b4d9087908d9087908d908d908d90612d30565b60405180910390a1604080518681526001600160a01b03881660208201527fe5f48e2a4a303d196ad814389aa54cf34e7b1e404e740599d005907a2ca0cd6c910160405180910390a150506001805550909695505050505050565b33611bbb6000546001600160a01b031690565b6001600160a01b031614611be15760405162461bcd60e51b815260040161066b90612a1e565b62ffffff8216600081815260096020908152604091829020805460ff19168515159081179091558251938452908301527f01edf9ca189a450a730fdfde8ad405acd3c427bcbc041aafea67987661563ea0910161071a565b33611c4c6000546001600160a01b031690565b6001600160a01b031614611c725760405162461bcd60e51b815260040161066b90612a1e565b6103e8811115611cb35760405162461bcd60e51b815260206004820152600c60248201526b08ccaca40e8dede40d0d2ced60a31b604482015260640161066b565b60038190556040518181527fd10d75876659a287a59a6ccfa2e3fff42f84d94b542837acd30bc184d562de4090602001611371565b33611cfb6000546001600160a01b031690565b6001600160a01b031614611d215760405162461bcd60e51b815260040161066b90612a1e565b6001600160a01b038116611d705760405162461bcd60e51b8152602060048201526016602482015275496e76616c696420726f75746572206164647265737360501b604482015260640161066b565b600580546001600160a01b0319166001600160a01b0383169081179091556040519081527f7aed1d3e8155a07ccf395e44ea3109a0e2d6c9b29bbbe9f142d9790596f4dc8090602001611371565b6000600260015403611de25760405162461bcd60e51b815260040161066b90612a53565b60026001556001600160a01b03861660009081526008602052604090205460ff16611e455760405162461bcd60e51b8152602060048201526013602482015272151bdad95b881b9bdd081cdd5c1c1bdc9d1959606a1b604482015260640161066b565b60008511611e955760405162461bcd60e51b815260206004820152601d60248201527f416d6f756e74206d7573742062652067726561746572207468616e2030000000604482015260640161066b565b60008411611ee55760405162461bcd60e51b815260206004820152601b60248201527f52617465206d7573742062652067726561746572207468616e20300000000000604482015260640161066b565b6001600160a01b038316611f0b5760405162461bcd60e51b815260040161066b90612b39565b6001600160a01b038216611f315760405162461bcd60e51b815260040161066b90612b69565b6040516323b872dd60e01b81523360048201523060248201526044810186905286906001600160a01b038216906323b872dd906064016020604051808303816000875af1158015611f86573d6000803e3d6000fd5b505050506040513d601f19601f82011682018060405250810190611faa9190612bab565b611fe85760405162461bcd60e51b815260206004820152600f60248201526e151c985b9cd9995c8819985a5b1959608a1b604482015260640161066b565b600061271060035488611ffb9190612c9c565b6120059190612cb3565b905060006120138289612b10565b905081156120d45760025460405163a9059cbb60e01b81526001600160a01b039182166004820152602481018490529084169063a9059cbb906044016020604051808303816000875af115801561206e573d6000803e3d6000fd5b505050506040513d601f19601f820116820180604052508101906120929190612bab565b6120d45760405162461bcd60e51b8152602060048201526013602482015272119959481d1c985b9cd9995c8819985a5b1959606a1b604482015260640161066b565b60405163a9059cbb60e01b81526001600160a01b0386811660048301526024820183905284169063a9059cbb906044016020604051808303816000875af1158015612123573d6000803e3d6000fd5b505050506040513d601f19601f820116820180604052508101906121479190612bab565b6121635760405162461bcd60e51b815260040161066b90612cd5565b6004805490600061217383612d17565b9091555060408051610120810182526001600160a01b03808d16825260208083018d81528385018d815233606086019081528d8516608087019081528d861660a08801908152600160c08901818152600060e08b01818152426101008d019081528e8352600b909a52908c90209a518b54908b166001600160a01b0319918216178c559751928b0192909255945160028a01559251600389018054918916918716919091179055905160048801805491881691909516179093559151600586018054925193511515600160a81b0260ff60a81b19941515600160a01b026001600160a81b0319909416929096169190911791909117919091169290921790915551600690910155519094507f762b57f94d140950de7725240137a9b211915c582d995ac55bbe204e5acbfa7a906122b59086908c908c908c908c908c90612d30565b60405180910390a1604080518581526001600160a01b03871660208201527fe5f48e2a4a303d196ad814389aa54cf34e7b1e404e740599d005907a2ca0cd6c910160405180910390a15050600180555095945050505050565b336123216000546001600160a01b031690565b6001600160a01b0316146123475760405162461bcd60e51b815260040161066b90612a1e565b6001600160a01b03811661239d5760405162461bcd60e51b815260206004820152601860248201527f496e76616c696420747265617375727920616464726573730000000000000000604482015260640161066b565b600280546001600160a01b0319166001600160a01b0383169081179091556040519081527f7dae230f18360d76a040c81f050aa14eb9d6dc7901b20fc5d855e2a20fe814d190602001611371565b336123fe6000546001600160a01b031690565b6001600160a01b0316146124245760405162461bcd60e51b815260040161066b90612a1e565b6001600160a01b0381166124895760405162461bcd60e51b815260206004820152602660248201527f4f776e61626c653a206e6577206f776e657220697320746865207a65726f206160448201526564647265737360d01b606482015260840161066b565b600080546001600160a01b0319166001600160a01b0383169081178255604051909182917f8be0079c531659141344cd1fd0a4f28419497f9722a3daafe3b4186f6b6457e09190a350565b336124e76000546001600160a01b031690565b6001600160a01b03161461250d5760405162461bcd60e51b815260040161066b90612a1e565b6001600160a01b03811661255c5760405162461bcd60e51b8152602060048201526016602482015275496e76616c69642071756f746572206164647265737360501b604482015260640161066b565b600680546001600160a01b0319166001600160a01b0383169081179091556040519081527f06526a30af2ff868c2686df12e95844d8ae300416bbec5d5ccc2d2f4afdb17a090602001611371565b336125bd6000546001600160a01b031690565b6001600160a01b0316146125e35760405162461bcd60e51b815260040161066b90612a1e565b62ffffff811660009081526009602052604090205460ff166126405760405162461bcd60e51b8152602060048201526016602482015275119959481d1a595c881b9bdd081cdd5c1c1bdc9d195960521b604482015260640161066b565b600a805462ffffff191662ffffff83169081179091556040519081527f047296db92c44badb6151f71068d317e2f335f2a1d6e4a60f7343249f06e86b590602001611371565b606060028210156126a95760405162461bcd60e51b815260040161066b90612a8a565b6000838360008181106126be576126be612b23565b90506020020160208101906126d39190612942565b6040516020016126fb919060609190911b6bffffffffffffffffffffffff1916815260140190565b60408051601f19818403018152919052905060015b8381101561277f57600a54829062ffffff1686868481811061273457612734612b23565b90506020020160208101906127499190612942565b60405160200161275b93929190612d88565b6040516020818303038152906040529150808061277790612d17565b915050612710565b5090505b92915050565b80356001600160a01b03811681146127a057600080fd5b919050565b80151581146127b357600080fd5b50565b600080604083850312156127c957600080fd5b6127d283612789565b915060208301356127e2816127a5565b809150509250929050565b60008083601f8401126127ff57600080fd5b50813567ffffffffffffffff81111561281757600080fd5b6020830191508360208260051b850101111561283257600080fd5b9250929050565b600080600080600080600060c0888a03121561285457600080fd5b873567ffffffffffffffff81111561286b57600080fd5b6128778a828b016127ed565b90985096505060208801359450604088013593506060880135925061289e60808901612789565b91506128ac60a08901612789565b905092959891949750929550565b6000806000604084860312156128cf57600080fd5b833567ffffffffffffffff8111156128e657600080fd5b6128f2868287016127ed565b909790965060209590950135949350505050565b60008060006060848603121561291b57600080fd5b61292484612789565b925061293260208501612789565b9150604084013590509250925092565b60006020828403121561295457600080fd5b61295d82612789565b9392505050565b600080600080600060a0868803121561297c57600080fd5b61298586612789565b945060208601359350604086013592506129a160608701612789565b91506129af60808701612789565b90509295509295909350565b803562ffffff811681146127a057600080fd5b6000602082840312156129e057600080fd5b61295d826129bb565b600080604083850312156129fc57600080fd5b6127d2836129bb565b600060208284031215612a1757600080fd5b5035919050565b6020808252818101527f4f776e61626c653a2063616c6c6572206973206e6f7420746865206f776e6572604082015260600190565b6020808252601f908201527f5265656e7472616e637947756172643a207265656e7472616e742063616c6c00604082015260600190565b6020808252600e908201526d14185d1a081d1bdbc81cda1bdc9d60921b604082015260600190565b60208082526028908201527f4d696e206f757470757420616d6f756e74206d75737420626520677265617465604082015267072207468616e20360c41b606082015260800190565b634e487b7160e01b600052601160045260246000fd5b8181038181111561278357612783612afa565b634e487b7160e01b600052603260045260246000fd5b602080825260169082015275496e76616c696420726566756e64206164647265737360501b604082015260600190565b60208082526022908201527f496e76616c6964206c69717569646974792070726f7669646572206164647265604082015261737360f01b606082015260800190565b600060208284031215612bbd57600080fd5b815161295d816127a5565b8082018082111561278357612783612afa565b60005b83811015612bf6578181015183820152602001612bde565b50506000910152565b60008151808452612c17816020860160208601612bdb565b601f01601f19169290920160200192915050565b602081526000825160a06020840152612c4760c0840182612bff565b905060018060a01b0360208501511660408401526040840151606084015260608401516080840152608084015160a08401528091505092915050565b600060208284031215612c9557600080fd5b5051919050565b808202811582820484141761278357612783612afa565b600082612cd057634e487b7160e01b600052601260045260246000fd5b500490565b60208082526022908201527f4c69717569646974792070726f7669646572207472616e73666572206661696c604082015261195960f21b606082015260800190565b600060018201612d2957612d29612afa565b5060010190565b9586526001600160a01b03948516602087015260408601939093526060850191909152821660808401521660a082015260c00190565b604081526000612d796040830185612bff565b90508260208301529392505050565b60008451612d9a818460208901612bdb565b60e89490941b6001600160e81b0319169190930190815260609190911b6bffffffffffffffffffffffff191660038201526017019291505056fea2646970667358221220ee2f0a76060a923c11c940785451e0790e5ff2cef7a7ad64122515cc14c3e14164736f6c63430008120033","linkReferences":{}},"methodIdentifiers":{"WETH()":"ad5c4648","createOrder(address,uint256,uint256,address,address)":"d401e2c9","createOrderWithCustomPath(address[],uint256,uint256,uint256,address,address)":"0e2e1e47","createOrderWithSwap(address,uint256,uint256,address,address)":"71729984","defaultFeeTier()":"57606cb5","estimateSwapOutput(address,address,uint256)":"550fce20","estimateSwapOutputWithPath(address[],uint256)":"2395a5f2","getOrderInfo(uint256)":"d311636b","orderIdCounter()":"be374423","orders(uint256)":"a85c38ef","owner()":"8da5cb5b","protocolFeePercent()":"d6e6eb9f","quoter()":"c6bbd5a7","setDefaultFeeTier(uint24)":"ffea8576","setFeeTierSupport(uint24,bool)":"a2cc6c1f","setProtocolFeePercent(uint256)":"a4983421","setQuoter(address)":"f912c64b","setTokenSupport(address,bool)":"0c6a753f","setTreasury(address)":"f0f44260","setUniswapRouter(address)":"bea9849e","setWETH(address)":"5b769f3c","supportedFeeTiers(uint24)":"8b41763e","supportedTokens(address)":"68c4ac26","transferOwnership(address)":"f2fde38b","treasury()":"61d027b3","uniswapRouter()":"735de9f7"},"id":16}